:020000040800F2
:10000000F8FF0120218F0A08BD8F0A08F93F050873
:10001000BD8F0A08BD8F0A08BD8F0A0800000000C6
:10002000000000000000000000000000BD8F0A0872
:10003000BD8F0A0800000000BD8F0A08512E050878
:10004000BD8F0A08BD8F0A08BD8F0A08BD8F0A0838
:10005000BD8F0A08BD8F0A08F5270408FD2704088C
:10006000052804080D28040815280408390700008D
:100070004D070000610700007507000089070000B8
:100080009D070000B1070000BD8F0A08BD8F0A0858
:10009000BD8F0A08BD8F0A08BD8F0A081D280408F5
:1000A000BD8F0A08D5550408BD8F0A08C555040838
:1000B000E5550408F555040805560408FD1E040816
:1000C000F11E0408311F0408251F0408BD8F0A080B
:1000D000BD8F0A08A5100000F91100004D130000A3
:1000E00025280408BD8F0A0800000000D156040826
:1000F000A9560408E156040899560408C5070000EB
:10010000BD8F0A083D4B040815560408BD8F0A0828
:10011000A1140000F515000025560408F5D50908BE
:10012000D9070000ED0700000108000015080000D5
:1001300029080000BD8F0A08BD8F0A08BD8F0A0874
:1001400000000000000000000000000000000000AF
:100150003D08000051080000650800004917000034
:10016000651F0408591F0408BD8F0A08BD8F0A08BF
:10017000BD8F0A08BD8F0A08BD8F0A080000000065
:10018000BD8F0A08BD8F0A089D180000F1190000F4
:10019000BD8F0A08BD8F0A08BD8F0A08BD8F0A08E7
:1001A000BD8F0A08BD8F0A08BD8F0A08BD8F0A08D7
:1001B000BD8F0A08BD8F0A08BD8F0A08991F040861
:1001C0008D1F0408BD8F0A08BD8F0A08BD8F0A085D
:1001D000BD8F0A0859C40908BD8F0A08BD8F0A08D7
:1001E000BD8F0A08BD8F0A08BD8F0A08BD8F0A0897
:1001F000BD8F0A08BD8F0A08BD8F0A08BD8F0A0887
:10020000BD8F0A08BD8F0A08BD8F0A08BD8F0A0876
:10021000F15604080157040811570408BD8F0A0855
:10022000BD8F0A08BD8F0A08BD8F0A0800000000B4
:10023000414B0408BD8F0A0800000000BD8F0A086A
:10024000BD8F0A08BD8F0A08BD8F0A08BD8F0A0836
:10025000BD8F0A08BD8F0A08BD8F0A08BD8F0A0826
:10026000BD8F0A08BD8F0A08BD8F0A08BD8F0A0816
:10027000BD8F0A08BD8F0A08451B00000000000062
:10028000BD8F0A0800000000BD8F0A0800000000B2
:0802900000000000BD8F0A0808
:020000040804EE
:100000004368426D30B49A61EFF31182502383F359
:1000100012884168D2B2856C0B68046D23EA05032F
:1000200023430B6082F31188436981681A68096869
:1000300022F00102D0E908541A60826A1D605C61F6
:100040005A60D0E90B429C60DA600023B0F86C2063
:1000500030BCCA620377704730B5FAB18E464FEABA
:10006000014C034600F1C005002419680C3353F815
:10007000042C43F8084C41EA0C0142EA0E02AB4260
:1000800043F80C1C43F8042CEFD1D0F8C03043EAFD
:100090000E03C0E93144C0F8C03030BD4FEA014E14
:1000A0008C46DEE710B40C4C6368002B11DD002099
:1000B00004F1080C0146DCF8AC3003F1C0025960D1
:1000C0000C339342FBD1013063680CF5867C83428C
:1000D000F1DC5DF8044B704704000020F0B5474C9C
:1000E00004EB401292F8543403B9F0BD4FF4B47CE1
:1000F000434B00264FEA401E0CFB004C9CF83A553F
:100100008CF83A6582F83A541D785A7895420DD0A9
:1001100002EB420C560003EBCC0C9CF804C00CF133
:10012000FF37012F5DD9BCF1030F55D004EB0E0052
:10013000A0F83814EFF31183902282F3128890F81C
:100140003A24DBB2B0F8381442EA4102002192B2FC
:1001500080F83A1483F311881309247883EA122370
:1001600083EA0201DCB11301C943D0F85024012411
:10017000D0F83C049BB201F00F01D2F8AC208440CF
:100180000B4302F1C000590013F4004F8BB202D1AF
:100190005168214351600C328242F4D1F0BD130109
:1001A000D0F83C44D0F8502401F00F0104F11000C5
:1001B0009BB20124D2F8AC200B43844002F1C00072
:1001C000590013F4004F8BB202D1516821435160A2
:1001D0000C329042F4D1F0BD571C07F00307AF4238
:1001E000A4D0324403EBC2030344597C00299DD0C0
:1001F00004EB0E03012283F83A2497E70400002061
:10020000B81B0024704700BF024B03EB401090F86E
:100210005504704704000020704700BF0A4810F8DA
:100220004C1C81B101EB410100234438490010B45A
:100230001C4650F82320063302B114608B42F8D1DB
:100240005DF8044B70477047FC1000200A4810F816
:100250004C1C81B101EB410100234438490010B42A
:100260001C4650F82320063302B114609942F8D19D
:100270005DF8044B70477047FC1000200120704768
:10028000034B00EB400003EBC00010F8330C704749
:10029000FC1000202DE9F0431D4C14F84C3CABB38E
:1002A0000022A4F144034FF0500E1A4E4FF02C0CD4
:1002B000194F154607E053F8181B01320D6014F86A
:1002C0004C1C914222DD197C0029F4D05968FE2093
:1002D0004FEA9128A8F58018B8F1520F98BF17F887
:1002E0000800EFF311888EF31288D1F824900CFBEC
:1002F00000605FFA88F809F10109C0F88C9048693C
:1003000040F00100486188F31188D4E7BDE8F0832C
:10031000FC100020B81B002450AC0A0807EE900A1D
:10032000B8EE670A704700BFBCEEC00A10EE103A84
:1003300098B27047C84BD3E9BE1270B58C0FC2F3A8
:10034000072C100E83F82843C1F38364000183F85F
:100350002943C1F3016483F82A43C1F3074483F8B6
:100360002B43C1F30724C9B283F82C43C2F30354CF
:1003700083F82D13A3F82E03C2F3C030B3F82E1365
:1003800089B22143C2F30344A3F82E13C2F34031D0
:1003900083F83043C2F3803483F83103002083F8BC
:1003A000324383F83313C2F3003183F8341393F8E4
:1003B000801383F83503012940F2F380022900F00D
:1003C000C580D3F800132A204FEA4C0C83F8414330
:1003D000C1F3C01201F07F010CF07E0C83F842C320
:1003E0004FF0010C93F842431443D3F8042383F8ED
:1003F0004243D40F83F84313910D83F84443C2F36F
:10040000417401F00C01C2F3815583F84543C2F3F6
:10041000826483F8464383F8471393F84713D3F86D
:100420000843294383F84713C2F3405183F8481324
:10043000002183F84913C2F3004183F84A13C2F341
:10044000C03183F84B13C2F3803183F84C13C2F3ED
:10045000403183F84D13C2F3003183F84E13C2F3D9
:10046000812183F84F13C2F30121C2F3460283F8BE
:100470005013C4F3074183F85123220E090283F875
:1004800052C383F85423C4F30722A3F85613240657
:10049000B3F8561389B21143A3F85613D3F80C13CB
:1004A000C3F858430C0ED3F8582342EA0442C3F869
:1004B00058230A0AD3F8584302F47F422243C1F377
:1004C0000724C9B2C3F85823D3F85853D3F81023DC
:1004D0002C43C3F8584383F85C13110E83F85D1363
:1004E000110C0906C3F860131102D3F860430A46E1
:1004F00001F47F01214392B2D3F81443C3F860138F
:10050000D3F860130A43C3F86023C4F30352D3F84B
:10051000601341EA1461C3F8601393F86413114344
:10052000C4F3072283F86413210A01F47061A3F86D
:100530006613B3F8661389B21143C4F34602A3F8F5
:10054000661383F8682383F869C370BD1204D3F877
:10055000001302F47C12C1F3072CC3F838230A0EEF
:10056000D3F8384344EA0224C1F30742C3F83843BE
:10057000D3F8384322434FF40074C3F83823D3F838
:100580003823C3F87843013240F10004A40244EA5E
:1005900092549202C3F87443C1F38034C3F87023B9
:1005A00012E74FEA8C2CD3F8001392004FF0010EA3
:1005B0000CF44064C1F3C26502F47F72C1F3072CEE
:1005C000C3F83843D3F838432243CC0BC3F838235D
:1005D00004F00602D3F8384344EA9174C3F8384370
:1005E000C1F3026483F83C5383F83D43C1F34254A2
:1005F00083F83E43C1F3824483F83F43C1F3C034E0
:1006000083F8402393F84023224383F84023D3F810
:10061000384393F8402393F8305302320EFA05F52D
:100620000EFA02F2C3F87853D617A2FB052E05FB8B
:1006300006EE04FB0EEE0134A2FB0424A644520A8B
:10064000C1F3803442EACE52C3F870234FEA5E22EF
:10065000C3F87423B8E600BFB81B002438B5074BB5
:1006600014460D46D3F884331B6A984702464FF46C
:100670000073002012682A60238038BDB81B002454
:1006800008B5074BD3F8843333B15B69984780F0E2
:100690000100404240B208BD4FF0FF3008BD00BF2E
:1006A000B81B0024002070472DE9F04123B3164603
:1006B00088469F18144DD5F88443002341463046A0
:1006C000A4681A46A0470028F5D0D5F8843333B182
:1006D0005B69984720B9D5F88433002BF8D1FEE741
:1006E000013608F50078B742E5D1D5F88833002007
:1006F000C5F88C33BDE8F081034D0020D5F8883370
:10070000C5F88C33BDE8F081B81B00242DE9F04119
:100710005BB316460F4603EB0208184C04E0D4F80E
:10072000841319B14B699847D4F8841300230D69D9
:10073000304639461A46A8470028F0D1D4F8843309
:1007400033B15B69984720B9D4F88433002BF8D1D2
:10075000FEE7013607F50077B045E5D1D4F88833D8
:100760000020C4F88C33BDE8F081044C0020D4F89C
:100770008833C4F88C33BDE8F08100BFB81B002477
:100780000020704770B50E4E0D461446D6F8E4337F
:100790003BB11A689B881269134096F8E12352B165
:1007A0005BB9FFF7C7FDD6F870234FF40073002044
:1007B0002A60238070BD002BF3D14FF0FF3070BD55
:1007C000B81B00240020704700207047034B93F8AB
:1007D000B403003818BF0120704700BFB81B0024C5
:1007E000826D136A5B681B78FF2B08D090F8F0309D
:1007F000013BDBB280F8F0301BB1012070470020D4
:100800007047126A0220526813707047836D1B6A2A
:100810005B681B78FF2B0AD190F8F030002B03F1B6
:10082000FF3280F8F02014BF012002207047002022
:10083000704700BF034B93F8B403032894BF002014
:1008400001207047B81B002400487047701F002427
:10085000034B93F8B403003818BF0120704700BF62
:10086000B81B0024034B93F8B403032894BF002063
:1008700001207047B81B002400487047701F0024F7
:10088000174B002030B493F82A4014B1DD698D4233
:1008900005D0013010330B28F5D130BC7047114B17
:1008A000A2B1D3F89C1401EB40218A4201D1022C61
:1008B00005D093F86C2672B1012283F8852403EBEE
:1008C0000013012283F8AE2430BC704703EB001004
:1008D00080F8AE24E1E7012283F86C26ECE700BF44
:1008E0003C200024B81B0024002330B41A4C04F22E
:1008F000844084F8583503E0013310300B2B19D0B5
:10090000C5698D42F8D190F82AC0BCF1030FF3D12C
:1009100092B1D4F89C1401EB43218A4205D094F89B
:100920006C26A2B1012284F8852404EB0313012272
:1009300083F8AE2430BC7047D4F8542504EB03137D
:100940000421013283F8AE14C4F85425F2E70122E1
:1009500084F86C26E6E700BFB81B00242DE9F843B5
:1009600012F0C6FA224F4FF0000C05464FF486787D
:10097000204E7968002930DD00231C4608FB0372F5
:10098000013392F805218B4244EA0204F6D144EA8D
:100990000C0C5FFA8CF97368C3F30803D3B9EFF357
:1009A0001183BBB912F0F4FA431BB3F5FA6FCCBF55
:1009B0004FF0000C04F0010CBCF1000FD9D1B9F1DB
:1009C000000F04D00C4B93F8DC26542A08D048467C
:1009D000BDE8F88312F060FAE6E7E1460024DAE7C2
:1009E000B3F8E42648460132A3F8E426BDE8F883CC
:1009F0000400002000ED00E0B81B00242DE9F04FBA
:100A0000BD4D87B02B781BB9012007B0BDE8F08F32
:100A10006B68BA4A002BD2F8887318DD05F1080418
:100A20000020B749D4F8F430BFF34F8F03F590722C
:100A3000C1F85C3220339342FAD1BFF34F8FBFF33A
:100A40006F8F01306B6804F586749842EADBAD4B1A
:100A5000AD4EA3FB0723AD4FDFF8C8A25B09A7F19A
:100A60007C0BA6FB0326F60806EB8606A3EB4606E0
:100A7000F3B207EB8606059307F53873029300235C
:100A80009946DBF864344B4540F30F81DAF81830AF
:100A9000DAF80480D3E93D5412F02AFA01220490D6
:100AA00002FA08F39A4901936118944B05EB41014E
:100AB00093F8F00693F8DC361A46039305EB4003EF
:100AC000542A00F04181019A994240F24481B3F8DE
:100AD00000C01CEA020F00F04D81B3F802C01CEA0E
:100AE000020F00F04A81B3F804C01CEA020F00F0C4
:100AF0004781B3F806C008331CEA020FE4D1019223
:100B0000A3EB050E99424FEA6E0E40F22481A4EB4E
:100B10000E04452C28BF452403EB4404A34280F077
:100B20001F8100259C46019AA846294601961888EF
:100B30001040884214D158881040814240F0D7803C
:100B400098881040814240F0D480D8880833104003
:100B5000814206D19C4207D9188810408842EAD0C9
:100B600002339C4200F2A880B8F1110F019E40F2BE
:100B7000F780D8F1150200F1F3806649049C0B68F8
:100B80009E455E4BD3F8F40638BFC1F800E0231A47
:100B9000002B13DB604B03449C4200F2F680574865
:100BA000C0F8F4360B68052B40F2ED80053BDBB254
:100BB000524880F8F0364FF0FF330B6042B105FA2F
:100BC00002F2C8F11408012505FA08F848EA0205FE
:100BD000524BC5F3C43203EB8202506D05F01F0285
:100BE00003EB8202516DC5F34412C5F3842503EB78
:100BF000820203EB850541EA0031536D41EA03119E
:100C00006B6D41EA032181EA112383EA131303F098
:100C10000F030F2B40F08880B1F5803F80F0848077
:100C2000039B0909542B05D1344AB2F8E03601334D
:100C3000A2F8E036DBF86433B1F5606F03F101032D
:100C4000CBF8643300F0B380029B998197F8583059
:100C5000059883420CD0B2683B689B1A3B607B6866
:100C6000326B9B1A7B600023B360336387F85800B4
:100C70003B6801333B60B3680133B3604FF6FF73E9
:100C8000994205D17B6801337B60336B0133336359
:100C9000029B09F101095C375C361433B9F1080F86
:100CA0000AF1200A02937FF4ECAE012301208BF8B5
:100CB000603407B0BDE8F08FA3EB0C0C184833F894
:100CC000021C4FEA6C0C11400CF1010C80FB0C6013
:100CD000A0EBEC704FF0010C0128B8BF012085405B
:100CE000804401380CFA00F09C4605431FE70433AA
:100CF00037E7063335E700BF04000020B81B0024A7
:100D000000ED00E01F85EB51CDCCCCCC781100205C
:100D1000C7FFFF7F0000002420A1070050AC0A0895
:100D2000565555553C040020039B542B33D0DBF81B
:100D300064330133CBF86433DBF860334FF6FF7173
:100D40000133CBF8603381E7204A9942A2F8E606E6
:100D5000019A3FF6BCAE18B101381C4B83F8F0067F
:100D6000039B542B94D1194AB2F8E2360133A2F80E
:100D7000E2368DE702330192C2E604330192BFE608
:100D800006330192BCE6002312E704980F4B0530AE
:100D9000C3F8F40606E70D4AB2F8E0360133A2F8CC
:100DA000E036DBF864330133CBF86433C4E7074A39
:100DB000537803EB430302EBC3034B445B7C0D2BE3
:100DC0007FF442AF8023029A93773FE7B81B002459
:100DD00010B5044668F0C8FF0146204689B2BDE858
:100DE0001040FFF77BB900BF00EB400010B5084C86
:100DF00004EBC00414ED0F7A54ED0E7AE7EE007A9E
:100E0000B0EE670A68F0B0FF54F8443C186010BDBB
:100E1000FC100020F8B5264B1A785B789A4242D134
:100E2000244E7368002B23DD002506F10800224CB8
:100E30002F46D0F8AC30BFF34F8F03F1E002C4F877
:100E4000683220339342FAD1BFF34F8FBFF36F8FD5
:100E5000337813B1037F012B20D0426901357168CB
:100E600000F586701368A94243F001031360E0DCCB
:100E700012F03EF8114BD3F86844002C0DDD03F25C
:100E80006C4303EBC4041968083333F8042CC868B6
:100E90009C4242EA0002CA60F5D1F8BD80F8FC70BD
:100EA000FFF7AEF8D9E761F0CDFC0028B8D1F8BD66
:100EB000B81B00240400002000ED00E0FC1000201E
:100EC0004FF0B042F8B5D2F88030D2F888502B40BD
:100ED00003EA0005C2F888507DB1084F0126B5FA33
:100EE00085F4C4F11F0407EB840306FA04F4D3F875
:100EF000F80603689847A543F1D1F8BDB81B002454
:100F00000269C3682DE9F04712EA03092AD00546B1
:100F10000E464FF000474FF00008B9FA89F327FA60
:100F200003F21B3BD24309EA02092A61042B16D8BB
:100F3000DFE803F03B30251A0300B36A002B3FD0F3
:100F400003F1FF3AC6F828801FFA8AFA746A34B1AE
:100F500023682046514698476468002CF8D1B9F1BF
:100F6000000FDAD1BDE8F08770680028F7D0696B10
:100F7000036889B29847B9F1000FCED1F2E7B068A3
:100F80000028ECD0A96B036889B29847B9F1000F2B
:100F9000C3D1E7E7F0680028E1D0E96B036889B2C4
:100FA0009847B9F1000FB8D1DCE730690028D6D0F6
:100FB000296C036889B29847B9F1000FADD1D1E728
:100FC000E96A1FFA81FAC1E78069B43055F0B0BE12
:100FD00038B5134C41F20D13124941F28832D4F85E
:100FE0001C58D4F8D8072D048560C56829400B43E8
:100FF0000D21C3605BF04AF938B1D4F80C280346E0
:1010000000201343C4F80C3838BDD4F8D8375869D9
:10101000C0F34320A0F10400B0FA80F0400938BDCD
:10102000B81B0024C0E0FEFF08B5FFF7D1FFB0B148
:101030000C4BD3F8E40358B101688288096993F82E
:10104000E1330A402BB1002A0CBF00204FF0FF30E3
:1010500008BD002A14BF00204FF0FF3008BD4FF03C
:10106000FF3008BDB81B002470B5164C05460E466F
:1010700094F8B433042B10D0082B15D1D4F8AC332A
:1010800083421CD0002394F88224C4F8B0330AB100
:10109000C4F85438FFF79CFF40B108230220C4E98C
:1010A000EB5684F8B43370BD012070BD0922D4F82A
:1010B0008833012084F8B423C4F8A43370BD02201F
:1010C00070BD00BFB81B002410B50E4CD4F85838C2
:1010D0003BB194F864181A68C9079B8848BF1B0481
:1010E000936160F0DDFD02E05B69984720B9D4F8B8
:1010F0008433002BF8D1FEE7D4F888330020C4F8FD
:101100008C3310BDB81B0024F8B5394C0846114685
:10111000D4F8E4534DB12A68AD881269154094F8AB
:10112000E123002A44D0002D44D110F01F0241D108
:101130000125C4F86808C4F87038C4F818534FF48F
:101140000075C4F86C58002848D094F80858012D50
:1011500030D1D4F82858C4F80C285A18AA4234D8E8
:101160001A4660F0DFFF28BBD4F81833002BFBD100
:10117000D4F8D83741F20D161E4FD4F81C58184633
:1011800041F288320D212D049D60DD683D403543DC
:10119000DD605BF07BF880B9D4F8D8375A69C2F3C8
:1011A0004322042AE9D1D4F88833C4F88C33F8BD3B
:1011B000002DBAD14FF0FF30F8BDD4F80C28D4F888
:1011C000D8371043C4F80C08D7E7D4F80C384FF0E0
:1011D000FF3043F00073C4F80C38F8BDD4F80C3875
:1011E0004FF0FF3043F00063C4F80C38F8BD00BF87
:1011F000B81B0024C0E0FEFF70B52D4D0846114617
:10120000D5F8E4433CB12268A4881269144095F8EB
:10121000E123AAB3B4BB01220446C5F81C23C206CD
:1012200030D15E02BFF34F8F3EB100EB060C214E72
:10123000C6F8684220346445FAD1BFF34F8FBFF33C
:101240006F8F58B395F80828012A1BD10022D5F8D2
:101250002848C5F80C285A18A24216D81A4660F039
:10126000C3FF78B9D5F81C33002BFBD161F01EF811
:101270000428FBD1D5F888330020C5F88C3370BD25
:10128000002CC8D14FF0FF3070BDD5F80C384FF0AE
:10129000FF3043F00073C5F80C3870BDD5F80C383A
:1012A0004FF0FF3043F00063C5F80C3870BD00BF4D
:1012B000B81B002400ED00E010B5164CD4F8E43360
:1012C0006BB1196894F8E1239B8809690B4022B13E
:1012D0002BB1002384F8B43310BD002BF9D094F85F
:1012E000B433032B0FD894F8A8330133DBB2072BA8
:1012F00084F8A833EDD8D4F888230123C4F8A423B4
:1013000084F8B43310BD044810F044FEA4F8EC0394
:10131000E9E700BFB81B0024801A060010B58CB0A6
:10132000114C002301220DF10701844604F57A7067
:10133000049203910D498DF82820069102A9029389
:101340008DF8143009930B9384F880C4CDE90733EA
:1013500010F042FCD4F8E823136A002BFCD19DF86E
:1013600007000CB010BD00BFB81B00240D08040816
:1013700070B5054690B008200C46FFF7CFFFFF2858
:1013800026D0FE2802D0022010B070BD0023124EDD
:101390000220012201A98DF810308DF824300F931E
:1013A00003948DF83820CDE9073006F57A70CDE941
:1013B0000135CDE90533CDE90A33CDE90C3310F021
:1013C0000BFCD6F8E833186A0028FCD110B070BDC9
:1013D000012010B070BD00BFB81B002430B591B023
:1013E00000231D4DFD200DF1030101228DF80300A6
:1013F00005F57A70C5F8B0338DF810308DF82430CB
:101400000F9303928DF83820CDE9053101A9CDE97C
:101410000133CDE90732CDE90A33CDE90C3310F0C1
:10142000DBFBD5F8E8331C6A002CFCD10120FFF768
:1014300075FFFF2809D00922D5F88833204685F8A2
:10144000B423C5F8A43311B030BD0423022085F8BD
:10145000B43311B030BD00BFB81B002410B5044632
:1014600092B0080E4FF0950C8DF8081000238DF8FF
:101470000500080C01228DF809C08DF80600080A45
:10148000062144F0400C8DF8070001A80591039057
:101490000DF10300174904938DF804C08DF818303E
:1014A000079308930A928DF82C3009908DF840200C
:1014B0001193CDE90C13CDE90E335FF04BFF1CB156
:1014C00080F00100C0B288B90B4C082303A904F5D1
:1014D0007A7084F8803410F07FFBD4F8E823136A24
:1014E000002BFCD19DF8030012B010BDFF2012B0FC
:1014F00010BD00BF0D080408B81B0024817899B105
:101500000C48D0F87438102B0FD003EB4302013392
:101510004FF0200C0244C0F87438012382F8781888
:1015200082F879C882F87A3870470521002011F0D6
:10153000F3BF00BFB81B00242DE9F043B64C93B0B5
:1015400094F8E063002E00F0B88194F8B43304F509
:1015500074775A1E082A00F24F81DFE812F0350036
:101560007000BB004D013B0161011C004D010900F1
:101570005FF0F0FE0546002840F02483D4F8A43341
:10158000D4F88823FA33934280F03381FFF794FE36
:1015900094F8B433DDE75FF0DDFE0028EED0D4F838
:1015A000B0330022012B84F8A82340F21E83D4F824
:1015B000AC23013B082106460132C4F8B03384F85D
:1015C000B413C4F8AC2301E100210846FFF746FF3D
:1015D000D4F8E8230546136A002BFCD10A2011F049
:1015E000F9FCD4F8F03313B11A689B889361012D8C
:1015F00040F0FF804FF0000840F2AB11082084F863
:10160000A983FFF72BFF052800F0CA81012800F00D
:101610007D81D4F8E823136A002BFCD10A2011F055
:10162000D9FCD4F8F03313B11A689B88936194F80D
:10163000A933002B00F0C282022384F8B43394F85B
:10164000A93300213720022B0CBF4FF080450D46F7
:10165000FFF704FF29202946FFF700FFD4F8E8230D
:101660000546136A002BFCD10A2011F0B3FCD4F814
:10167000F03313B11A689B889361002D40F0B98054
:1016800094F8A933022B00F0F78184F8AA530021C3
:101690000920FFF7E3FE002800F087810025D4F839
:1016A000E823136A002BFCD10A2011F093FCD4F834
:1016B000F03313B11A689B889361002D00F0998074
:1016C00000210A20FFF7CAFE002840F0A281032370
:1016D00084F8B433102103A8FFF74AFE002840F035
:1016E0008880BDF80D209DF8143052BA9DF80C107A
:1016F000DDF81500A4F8BC239DF80F2000BA84F88B
:10170000BE1303F00F0184F8BF239DF8102084F866
:10171000C91384F8C0239DF81120C4F8C40384F8C9
:10172000C1239DF8122084F8C2239DF8132084F869
:10173000C3231A099DF8193084F8C8231B019DF8AA
:101740001A20DBB243EA121302F00F0203F5FA6328
:1017500084F8CC23D4F8E823A4F8CA33136A002B06
:10176000FCD10A2011F036FCD4F8F03313B11A681A
:101770009B88936194F8AA33B3B94FF40071102099
:10178000FFF76CFED4F8E8230546136A002BFCD162
:101790000A2011F01FFCD4F8F03313B11A689B88AB
:1017A0009361002D7FF4F2AE1C4810F0F3FB04228D
:1017B0000021A4F8EC03134684F8B423C4F8B01352
:1017C000082B18BF042B0CBF01260026304613B08F
:1017D000BDE8F0834FF40071D4F89003FFF7C8FD23
:1017E000012800F0B580022800F0BA80002800F03F
:1017F000218194F8B4335A1ED2B2022AE0D8D4F828
:101800008833D4F8A4239B1AC82B74D800263046FA
:1018100013B0BDE8F08300BFB81B002440787D0101
:10182000D4F8E823117B136A00294CD05269002AAE
:1018300049D094F87024002A45D0B3FA83F35B09A9
:10184000002BD6D002AA002303A9A84803920222A3
:10185000ADF8083005920DF10702049309920122B8
:101860008DF81830079308938DF82C3011930A9255
:101870008DF84020CDE90C33CDE90E3310F0ACF9F2
:10188000D4F8E8331D6A002DFCD19DF8073003F031
:101890001F03052B00F07C81FFF70EFDD4F89C831D
:1018A000B8F1000F79D0D4F8A0332A46D4F89413B5
:1018B0000120C04794F8B4334BE6304684F8B46353
:1018C00013B0BDE8F083D4F89033002294F8981355
:1018D000864803EB01214FF4807310F0A7FA94F8C7
:1018E00098230132D2B2A2F1020384F89823B3FA0A
:1018F00083F35B09A4E7FFF7DFFC94F8B463042EDD
:1019000018BF082E0CBF012600265FE702AB03A913
:101910007648049304238DF82C50CDF80C808DF874
:101920001880CDF830800593CDE90788CDE9098886
:1019300010F052F9D4F8E823136A002BFCD19DF87B
:101940000B30AB2B7FF467AE022384F8A93362E639
:10195000D4F8A433D4F8882364339342BFF449AF56
:10196000D4F8E823136A002BFCD10A2011F032FBD3
:10197000D4F8F03313B11A689B889361FFF79CFC8D
:10198000D4F89C534DB10022D4F8A033D4F894136A
:101990001046A84794F8B433DBE594F8B433D8E59F
:1019A000D4F8E82384F8A95335E610213846FFF728
:1019B000DFFC00287FF472AE94F8DF33DB077FF59D
:1019C0006DAE94F8D023921100F09480012A7FF438
:1019D00065AE94F8D7231621DFF814C102259200D2
:1019E000D2B2C5F108038B4228BF0B46C3F10805EC
:1019F0009840C91A42FA05F24FF0000540EA020089
:101A00001CF8012FEDD1431C35469B02C4F8B833B6
:101A100045E6D4F8E823136A002BFCD10A2011F024
:101A2000D9FAD4F8F033002B3FF4B0AD1A689B8894
:101A30009361ABE5D4F8E823136A002BFCD10A20AC
:101A400011F0C8FAD4F8F03313B11A689B88936187
:101A500004230020D4F89C5384F8B43384F8A803FA
:101A6000002D3FF4B3AED4F8A033D4E9E421A84765
:101A700094F8B4335A1EBFE629463A20FFF7EEFC2D
:101A800002AB804603A9049304231848059301235D
:101A900003958DF82C308DF818500C95CDE907552D
:101AA000CDE9095510F098F8D4F8E8331A6A002AFD
:101AB000FCD1B8F1000F12D11A6A002AFCD10A2019
:101AC00011F088FAD4F8F03313B11A689B88936147
:101AD000029B1BBAC3F3807384F8AA33D7E51A6A52
:101AE000002A9BD01A6A002AF9D197E7A01F002488
:101AF0008F1F002494F8D533012094F8D9134FF0A8
:101B0000030C03F00F03DFF828E189019840CDB200
:101B10000621C1F10803634528BF6346C3F10801EC
:101B20009A40BCEB030C45FA01F11EF8015F42EA52
:101B300001024FF00001ECD194F8D6130232DFF825
:101B4000F4800C2589014FF0060EC9B2CEF10803CE
:101B50004FF0000EAB4228BF2B46C3F108090CFA28
:101B600003FCED1A41FA09F141EA0C0C18F8011FC7
:101B7000ECD10CF10103C11735469340A3FB0002E1
:101B800003FB0122400A40EAC250C4F8B80386E5CC
:101B90000722D4F88833D4F89C6384F8B423C4F8BB
:101BA000A433002E3FF412AED4F8A0330120D4E9C0
:101BB000E421B04794F8B4335A1E1DE61E4684F85B
:101BC000B43303E6D4F8E823136A002BFCD10A20CF
:101BD00011F000FAD4F8F03313B11A689B889361BE
:101BE00004232E4684F8B433F0E516D00423D4F849
:101BF000E82384F8B433136A002BFCD10A2011F0D7
:101C0000E9F9D4F8F033002B3FF4F3AD1A689B8860
:101C1000936194F8B4335A1EEEE5FFF7DFFB022818
:101C20007FF4E7ADD4F8E8331A6A002AFCD1E5E77F
:101C3000911F00248E1F00242DE9F041054688469F
:101C400017461E46304C94F8B403042839D00828AF
:101C500007D1D4F8AC33AB4206D0FFF7BFFB022864
:101C6000F1D00120BDE8F081FC23D4F8E82384F80A
:101C7000A838117B254BC3F82C8051B1526942B171
:101C800094F87024002A0CBF4FF480724FF4007255
:101C900001E04FF480725A631D491E480FF09CFF0B
:101CA000012206230020C4F89083C4F89453C4F89A
:101CB0009C73C4F8A06384F8982384F8B433BDE817
:101CC000F08194F8AA3353B969021820FFF7C6FBD4
:101CD00038B994F8B433082BC6D0FE23C5E729469B
:101CE000F3E7D4F8E823136A002BFCD10A2011F0A3
:101CF00071F9D4F8F03313B11A689B889361FFF738
:101D0000DBFA0320AEE700BFB81B0024000000246C
:101D100004000024A01F002470B5224E05460C4686
:101D200096F8B433042B09D0082B1FD1D6F8AC3366
:101D3000834235D0FFF752FB022817D1002137200C
:101D4000FFF78CFB21461720FFF788FBB0B996F808
:101D5000AA336BB969021920FFF780FB70B9082319
:101D60000220C6E9EB5486F8B43370BD012070BD83
:101D700029461920FFF772FB0028F0D0D6F8E82397
:101D8000136A002BFCD10A2011F024F9D6F8F033A5
:101D900013B11A689B889361FFF78EFA032070BD18
:101DA000022070BDB81B00242DE9F843224D804667
:101DB0008946174695F8B4431E46042C08D0082CD3
:101DC00002D00020BDE8F883FFF708FB0228F8D115
:101DD00095F8AA33B3B141461120FFF73FFBC0B9D4
:101DE0000522D5F888330120C5F89093C5F894836F
:101DF000C5F89C73C5F8A06385F8B423C5F8A4336F
:101E0000BDE8F8834FEA48211120FFF727FB00289F
:101E1000E6D0D5F8E8331C6A002CFCD10A2011F07A
:101E2000D9F8D5F8F033002BCBD01A6820469B8820
:101E30009361BDE8F88300BFB81B002410B4294C9F
:101E400094F88C346BB3D4F89424904235D0012BA1
:101E500027D0D4F87025824237D0022B21D0D4F875
:101E60004C26904233D0032B1BD0D4F82827904225
:101E70002FD0042B15D0D4F8042890422BD0052B5A
:101E80000FD0D4F8E028904227D0062B09D0D4F800
:101E9000BC29904223D0072B03D0D4F8982A824241
:101EA00011D0DC22591C02FB034284F88C14C2F8C6
:101EB000940418465DF8044B70470023DBB25DF8CC
:101EC000044B184670470723F8E70123F6E702237F
:101ED000F4E70323F2E70423F0E70523EEE7062304
:101EE000ECE700BFFC10002000207047704700BFE7
:101EF000014856F0E9B900BF7C240024084810B41A
:101F0000D0F8C438D0F8F84899691A682CB123463B
:101F100000F6C4005DF8044B18475DF8044B7047A9
:101F2000B81B0024014856F0CFB900BFE0240024BC
:101F3000084810B4D0F82839D0F85C4999691A6873
:101F40002CB1234600F628105DF8044B18475DF8C5
:101F5000044B7047B81B0024014856F0B5B900BFC8
:101F600044250024084810B4D0F88C39D0F8C04972
:101F700099691A682CB1234600F68C105DF8044B61
:101F800018475DF8044B7047B81B0024014856F011
:101F90009BB900BFA8250024084810B4D0F8F03938
:101FA000D0F8244A99691A682CB1234600F51F60BD
:101FB0005DF8044B18475DF8044B7047B81B0024CC
:101FC00003282DE9F04FD4BF0026012685B0B0F1DB
:101FD000FF3F08BF46F001068DF80F30002E40F09D
:101FE0008780864F6423044603FB0073D3F8C4083C
:101FF00000287ED093F80559202D40F08E8093F86C
:102000000459012D00F089800125D7F83C8A83F816
:10201000045905E0D7F83C3AA3EB0803192B6CD818
:10202000856915F40045F5D14FF0640B744BCDF87C
:1020300000804FEA41090BFB04FB49460BEB030A06
:10204000BB4421235046CBF8F8588BF80539402380
:102050008BF806390DF10F03CBF80859CBF8E838A7
:102060000123ABF8EE380A2360F088FC002879D110
:10207000BBF8EE389BB2FF2B40F29880DBF8C41817
:10208000FF236048ABF8EC384B685F4A034043EAF3
:1020900009031A434A60642505FB047505E0B5F899
:1020A000EE389BB2002B00F0938042460A21504646
:1020B00056F048F988BBD5F8E838D5F8C42813F8A5
:1020C000010BB5F8EC189062C5F8E8380139B5F89D
:1020D000EE3889B2013BA5F8EC189BB2A5F8EE38B2
:1020E000B5F8EE389BB2002BD9D00029D7D124E027
:1020F0000026304605B0BDE8F08F64232021002281
:1021000003FB0474D4F8083984F804290B43C4F899
:10211000083984F8051984F80629B7F8403A30469A
:1021200001339BB2A7F8403A05B0BDE8F08FD7F86D
:102130003C3AA3EB08030A2B27D8916911F08001E0
:10214000F5D0B5F8EE389BB2FF2B0ED953682D4968
:102150000B402D4943EA09031943FF23A5F8EC3846
:1021600051609CE78BF80459D7E7B5F8EE3825485D
:102170009BB25168A5F8EC38DBB2014049EA034351
:102180000B4343F00073536089E7642303FB04743B
:10219000D4F8083984F8041943F02003C4F8083946
:1021A000202384F8053984F80619B6E7BBF8EE3821
:1021B000DBF8C4189BB213484A68ABF8EC38DBB2C2
:1021C000024049EA0343134343F000734B6062E764
:1021D0004146504660F04EFC00289ED1D5F8C438E8
:1021E00020210A4C0126D9615A6822405A6085F89C
:1021F000051985F8040985F806097AE7B81B002453
:102200007C240024009C00FC0000FF0100E800FE8C
:102210002DE9F047904C6425074682B005FB004548
:10222000D5F8C408002800F0A28095F80569202E92
:1022300040F0AF801FFA83FC002B00F0B48095F8CB
:102240000439012B00F0A580012385F80439D4F866
:102250003C5A05E0D4F83C3A5B1B192B00F2A880ED
:10226000866916F40046F5D14FF0640A7B4B009561
:102270004FEA41090AFB07FA49460AEB0308A24460
:102280000A9B4046CAF8F868CAF8E83822238AF858
:10229000053940238AF806390A23CAF80869AAF8DA
:1022A000EEC860F0A9FB002840F0D280BAF8EE3802
:1022B0009BB2FF2B00F28D80BAF8EE38DAF8C41822
:1022C0009BB267484A68AAF8EC38DBB2024049EA98
:1022D00003431343634A1A434A606426624AFF2059
:1022E000DFF890A106FB0746D6F8C41804E0D4F83E
:1022F0003C3A5B1B0A2B3DD88B6913F0040CF6D0DB
:102300004B6AD6F8E8180B70B6F8EE38B6F8ECC899
:10231000013B0CF1FF3C9BB21FFA8CF1A6F8EE38A2
:10232000D6F8E838A6F8EC180133C6F8E838B6F85D
:10233000EE389BB209B9002B59D1B6F8EE389BB2F2
:10234000002BD1D12946404660F094FB034600BBE8
:10235000D6F8C42820244548D461516801400120A2
:10236000516086F8054986F8043986F8063902B0C6
:10237000BDE8F0876423202203FB0747D7F808391C
:1023800087F804C91343C7F8083987F8052987F87F
:1023900006C9B4F8403A002001339BB2A4F8403A91
:1023A00002B0BDE8F0874FF40073C5F80839F0E7D4
:1023B00064232021002203FB0747D7F8083987F858
:1023C00004290B43C7F8083987F8051987F8062947
:1023D000DFE7DAF8C418FF232148AAF8EC384B6885
:1023E000234A034043EA09031A434A6075E7D6F8D3
:1023F000C4E804E0D4F83C3A5B1B0A2BBAD8DEF8F8
:10240000183013F0800CF5D0B6F8EE389BB2FF2BE5
:102410000BD9DEF80430A6F8EC08134043EA0903B0
:1024200043EA0A03CEF8043087E7B6F8EE38DEF860
:1024300004C09BB20CEA020CA6F8EC38DBB249EA05
:10244000034343EA0C0343F00073CEF8043074E70F
:102450008AF804699DE700BFB81B00247C2400248F
:10246000009800FC00240082009C00FC00E800FEB4
:102470000024FF810000FF01114A037A0168D35C48
:1024800010B4CC58CA1824F00104CC501368DB07F0
:10249000FCD4037D1F2B09D9203B20225DF8044B7F
:1024A00002FA03F343F01803CB60704720225DF873
:1024B000044B02FA03F343F018038B60704700BF2C
:1024C00068310B08F8B507680646D7E90454A061DF
:1024D0002B7D1F2B49D9203B2022286802FA03F3C9
:1024E00043F01803C360237D1F2B48D92022203BD3
:1024F00002FA03F3226843F01803D36063680022F2
:1025000069680A601A601A6842F010021A60BA69B3
:10251000297A61F0EFFFFA69217A206861F0EAFF19
:1025200033682E681A6A5B6891685868184A0240D6
:1025300020680A4317495A602A7A8D5C725942F022
:1025400001027251227A895C425842F001024250E3
:102550009A6842F440429A601A6842F001021A6096
:102560001A6842F400721A60F8BD2022286802FA44
:1025700003F343F018038360237D1F2BB6D820227A
:1025800002FA03F3226843F018039360B6E700BF32
:102590000000FFFF68310B0810B1036882889A6160
:1025A000704700BF18B1838802681B0493617047AD
:1025B00008B51D2010F08CF808B183794BB11E20AE
:1025C00010F086F808B1837903B108BD5523C380A4
:1025D00008BD5523C380F2E7D3B20F2B29D84FF0A3
:1025E000000C10B46346144C04E001332A2B1CD0B9
:1025F00014F803CF6045F8D194F801C08C45F4D1AC
:102600000E4C03EB43030E4902EB420C23445DF8EE
:10261000044B01EB8C0201F1540093F8D63000EB2F
:102620008C00D36582F85430704700205DF8044B6D
:1026300070470020704700BF24AD0A0850AC0A085C
:102640000000002410B40C4C002304F6442C01E0DC
:10265000152B0CD003EB430201331CF8021081420E
:10266000F6D122445DF8044B92F9460A70474FF0C8
:10267000FF305DF8044B7047B81B002430B40023D2
:10268000114C124D04E001331A2B19D054F8085F95
:10269000A842F8D125798D42F5D10D4C02EB4205C7
:1026A0000C4904EBC30301EB850201F1540093F8DC
:1026B000593100EB8500D36582F8543030BC704747
:1026C000002030BC704700BFA4AD0A0800000140E4
:1026D00050AC0A0800000024F0B1002310B50446F5
:1026E0000E4894F804E000F6442C01E0152B11D0BC
:1026F00003EB430201331CF802107145F6D102448A
:102700006179206892F9462AD3B20F2B02D8BDE82E
:102710001040B3E7002010BD00207047B81B002414
:102720000138074B074A00EBC00003EB8000D0F8EC
:10273000140190420CBFA020A12060F06BBA00BF32
:10274000000000240000024001382DE9E84100EBC0
:10275000C000134D1E46134B05EB800590460F46F7
:10276000D5F8140198420CBFA020A12060F052FAC5
:10277000B5F92A014FEA9811C5F82471C5F82C6102
:1027800060F0C8F9B5F92A31002B07DB03F01F0010
:1027900001225B090449824041F82320BDE8E88119
:1027A000000000240000024000E100E0800AA0F5E3
:1027B0008010522806D8044B1B5C0D2B02D8034A0C
:1027C000D05670470020704750AC0A0858310B08AB
:1027D00070B183884FF00042B3FA83F332FA03F307
:1027E00006D04FF0B041D1F880201343C1F88030BB
:1027F000704700BF0120FEF763BB00BF0220FEF759
:102800005FBB00BF0420FEF75BBB00BF0820FEF7E4
:1028100057BB00BF1020FEF753BB00BF4FF47870CA
:10282000FEF74EBB4FF47C40FEF74ABB30B1036865
:1028300082881B691A4214BF01200020704700BF24
:1028400070B50C4686B00546164640B101680E4B81
:102850000E4A0B449B0A02EB4303B3F8240260F0D8
:10286000D9F904F01303AA8801A90293C4F3411310
:102870002868C4F3810401920596CDE9033455F02C
:10288000DDFB06B070BD00BF0000FEA750AC0A081B
:1028900000B1D5E770472DE9F84FC34F64230446D4
:1028A00003FB0073D3F8AC68002E00F06D81D3F801
:1028B000B4A8BAF1000F04D09AF80630002B40F00B
:1028C0006381642303FB0473D3F8B8581DB1AB795B
:1028D000002B40F05981631CDBB2BAF1000F04D029
:1028E00015228AF807308AF8062015B11622EB71F6
:1028F000AA714FF06409308B60F08CF9294609FB0E
:1029000004F9504664F0B0FF504607EB090898F808
:10291000BE3898F8BC28002B14BF3E211E21FFF7BB
:10292000B7FF98F8BE382846A04D002B98F8BD2870
:102930004D44DFF8989214BF3E211E21FFF7A8FFF7
:102940004C220021284668F001F8D8F8AC38984AA3
:102950005B689342C8F8C438DFF8748240F016818F
:1029600056F022F8D9F82030C3F302139FED917A84
:102970009FED915AB0EE084A4344F7EE003A4FF00B
:10298000000E40F2145893F8383203F01F03D84079
:10299000642307EE900A03FB0473F8EE677AB3F83A
:1029A000C098C7EE275A07EE909A9FED847AF8EE0A
:1029B000E77AC7EE274ADFED827AB0EE007AE5EEDD
:1029C000877AA5EE875A25EE844A37EE856A74EE3B
:1029D000E72AB9F5C87F0EF1010CD5BF6423322375
:1029E0004FF49670782007EE90CAD8BF4FF4167A4D
:1029F0000344C8BF4FF4827AB8EEE77AD8BF4146A5
:102A000007EE903AC8BF4FF4FA7127EE257A01EB32
:102A10000A03F8EEE76A86EE873A73EE636AFCEE25
:102A2000E67A17EE902A07EE90AAB8EEE73A07EE9C
:102A3000903AF8EEE77A23EE243AC3EE276A36EEB0
:102A4000C53A72EEE66AC3EE077A77EEE37AFCEEF9
:102A5000E77A17EE901AC6EE877A77EEE37AFCEE05
:102A6000E77A17EE903A03F1020A0AEB010BF0EE57
:102A7000466A07EE90BAF8EE677AE7EE276AF4EE58
:102A8000E64AF1EE10FA00F388805FFA82FABAF1B2
:102A90000F0F00F28480323807EE900AF8EEE77AE2
:102AA00077EEC47AC7EE876AFCEEE67A17EE900AF4
:102AB0005FFA80FABAF10F0F71D81FFA81FABAF1F2
:102AC000FF0F6CD81FFA83FABAF1FF0F67D812050F
:102AD0004AEA0E7302F07F620004134300F47F00A1
:102AE000384A034302EA01210B43642000FB0474CB
:102AF00000272846C4F8C8380123C4F8CC78C4F8A5
:102B0000D038C4F8D478C4F8D878C4F8E078C4F8D9
:102B1000E47863F0C5FA94F80539202BD9B21AD1BC
:102B200094F80439012B16D0242384F80539D4F8FD
:102B3000C4381A6822F001021A601A6822F480521E
:102B40001A601A681A601A6842F001021A6084F862
:102B5000051984F804790021F07E5FF0DBFFF37E35
:102B60000124194D5A0903F01F03002104FA03F34D
:102B700045F82230B07E5FF0CDFFB37E5A0903F0F6
:102B80001F039C4045F82240BDE8F88F55F00CFF2C
:102B9000D9F81C30E8E6E6461BE7013165E7BCF1F1
:102BA0000F0FF8D10023A0E7B81B00247C240024D9
:102BB000001C0058286B6E4E000016430024744918
:102BC0000000704200FFFF0000E100E000440258F6
:102BD00050AC0A082DE9F843B14C04EB0017D7F8C4
:102BE000843A002B00F0BF8005460601B7F88E0A34
:102BF00060F010F8B7F88E3A012103F01F025B096C
:102C0000023B01FA02F2082B0FD8DFE813F00801AB
:102C1000100118012001280109003001380140018C
:102C2000A04BD96F21EA0202DA67A319013593F8A4
:102C3000880AEDB20FF04CFD074610B11223C571A2
:102C40008371A31993F8890A0FF042FD814610B1F0
:102C50001323C5718371A31993F88A0A0FF038FD05
:102C6000804610B11423C5718371344448462E2127
:102C700094F88C2AFFF70CFE94F88D2A0E2140461A
:102C8000FFF706FE94F88B2A2E213846FFF700FE48
:102C9000D4F8843A84491A688B4222F001021A60FF
:102CA00063D0824A934200F08F8002F580629342A3
:102CB00079D17C4AD2F8901041F40041C2F89010CA
:102CC000D2F8901021F40041C2F89010DA6842F076
:102CD0000042DA609A6822F4F0729A601A68D607A5
:102CE00041D473499D68D1F86C23D1F8744344EA08
:102CF0000200D1F85C2310436E4A2A401043D1F8F9
:102D000068239860DD68D1F85803ED007BD5024355
:102D1000D1F86003DE68B4F5800F42EA0002D1F812
:102D20006403654D42EA0002D1F8700305EA060526
:102D300042EA0002D1F8540300F4C02600F4006017
:102D400042EA060242EA0502DA601A6822F40062E8
:102D500042EA00021A6002D1D1F878231A641A6D8F
:102D600022F001021A65BDE8F8834E4AD2F89810A5
:102D700041F48051C2F89810D2F8981021F4805193
:102D8000C2F898104D4A9342A0D1464AD2F89C10FE
:102D900041F02001C2F89C10D2F89C1021F02001D3
:102DA000C2F89C1092E7464A93421BD13D4AD2F8A2
:102DB000981041F40051C2F89810D2F8981021F4FC
:102DC0000051C2F8981081E7364AD2F8901041F4C9
:102DD0008041C2F89010D2F8901021F48041C2F8DE
:102DE0009010CFE7374A9342CCD12E4AD2F89810B0
:102DF00041F48011C2F89810D2F8981021F4801193
:102E0000C2F8981062E7B2F1806F80D1B0F5800F00
:102E10007FF47DAF1D6845F480551D6077E7214B39
:102E2000D3F8981021EA0202C3F89820FDE61D4B62
:102E3000D3F8901021EA0202C3F89020F5E6194B6E
:102E4000D3F8941021EA0202C3F89420EDE6154B62
:102E5000D3F8801021EA0202C3F88020E5E6114B86
:102E6000D3F8841021EA0202C3F88420DDE60D4B7A
:102E7000D3F88C1021EA0202C3F88C20D5E6094B66
:102E8000D3F8881021EA0202C3F88820CDE6054B6A
:102E9000D3F89C1021EA0202C3F89C20C5E600BFCB
:102EA000B81B0024004402580030014000380040A4
:102EB00000000024E0FFBF8FFFFF39D80014005846
:102EC000003401400050014008B10022B8E47047CE
:102ED0000E4B70B5D3F86464002E14DD0C4C002545
:102EE00003E0B54204F120040DD0237F0135002B0F
:102EF000F7D0E06800220028F3D0217D2034FFF7CE
:102F00009FFCB542F1D1012070BD00BFFC10002034
:102F10003C0400202DE9F04FBB4D7C229BB00021EA
:102F200005F5FB6067F012FDD5F8E44A4FF48052D6
:102F300095F8EA6A2368C5F8E027C5F8D8371EB1C6
:102F40004FF48042C5F8E4274FF40032C5F8E82773
:102F50000122C5F8EC2795F80828002A00F0A28085
:102F60000322AA4B85F80828DA6CD0034AD50AA8B0
:102F700058F020FA0C9AA649130AA1FB03131B0967
:102F80005C00D5F8D807A242A249466801EA0601CA
:102F900043EA01034360036843F00303036046D23E
:102FA000D5F83C2AD5F83C3A9B1A022BFAD90023D3
:102FB000994ADFF8889204938360C36897491A405E
:102FC000D9F87C33A1FB033141F2883342F48052BB
:102FD000490AC26003FB01F10B4602E0426B17068F
:102FE00033D4013BFAD24FF0004001232A2285F866
:102FF0000838D5F80C381843C5F80C0810461BB033
:10300000BDE8F08F996A9C6ADE6A14F47C7FC4F391
:103010000512586B40F09480D5F8D80714467D4BC4
:1030200041680B404360036843F003030360D5F835
:103030003C1AB2FBF4F47A4AB2FBF4F20232D5F84D
:103040003C3A5B1A9A42FAD8B1E7764B4C1E724A68
:1030500083634FF4D5738360C3681A4041F2081349
:103060001343C360234649B1426B013B12F0450F45
:1030700002D0910440F1E4805E1CF5D10023C5F834
:1030800014388360644BC268134043F48053C360B8
:1030900003E0436B190600F18D83661C04F1FF34D5
:1030A000F7D1A0E7604A934200F092805F4A9342D2
:1030B00000F0838395F8F80A0FF00AFB034695F8B1
:1030C000FA0A01930FF004FB804695F8F00A0FF01E
:1030D000FFFA019B074695F8F2BA95F8F4AA95F81D
:1030E000F69A2BB1184695F8F92A0E21FFF7A8FB9E
:1030F000B8F1000F05D0404695F8FB2A0E21FFF7E6
:103100009FFB2FB1384695F8F12A0E21FFF798FB67
:10311000002E40F0FF820021B4F904005FF0FAFCB9
:10312000D5F8E43AB3F90430002BFFF619AF03F0F9
:103130001F0001225B093E49824041F823200FE72E
:10314000C0F3CC0006F0010601F0030106FB00F01D
:10315000012907EE900AF8EEE77A05D0022900F07F
:10316000C983002900F0A18307EE102A9FED315A90
:10317000F8EEC76A1B6B85EE267A9FED2F6AC3F3C4
:10318000080306EE903AF7EE005AF8EEE66A76EE9D
:10319000A56AE7EE866A27EE267A1C4AF7EE006AF1
:1031A0001B49136B136B126BC3F3064307EE903A84
:1031B000F8EEE77A77EEA67AC7EE276AFCEEE67AB3
:1031C00017EE902A130AA1FB03131B095C00D8E633
:1031D0000E4BD3F8D42022F48032C3F8D420DA6F17
:1031E00042F48032DA67DA6F22F48032DA67D3F899
:1031F000D42042F48032C3F8D420D3F8D43003F47E
:1032000080330393039B55E7B81B00240044025806
:10321000598B4F01002CC0FFC0E0FEFFD34D621060
:1032200010210100C5002000007000520024024857
:1032300000E100E00024744A00000039000000248E
:10324000436B5A0700F15D83436BDB0700F1298371
:10325000436B5F0600F1D182012200233721C5F8BC
:10326000142883605E4AC3681A4041F2371313433F
:1032700041F28832C36059F009F800283DD1049A20
:103280004FF6FE739A4200F2B380D5F8D847544EF9
:10329000DFF85881534F002041F2371341F2883252
:1032A0003721A0602046D4F80CC00CEA060C4CEA8A
:1032B0000303E36058F0EAFF00287FF496AED5F8E8
:1032C000D84741F22911D9F87C3341F28830C4F84B
:1032D0000880A7FB0332E368520A334000FB02F286
:1032E0001943531EE16042B1626B013B12F0450F7E
:1032F00001D0900404D55A1CF6D14FF0805074E6EA
:10330000636B590700F1FB81374BA3636269049B30
:10331000002A03F101030493049B03DB4FF6FE71C3
:103320008B42B8D904994FF6FE73994200F2688235
:10333000520063D5236801229B07C5F8102800F0CE
:10334000E6810023264E2046A36041F20233E26864
:1033500032401343E36059F033F8034698BBD5F885
:10336000D847D5F81008626904F118010328C5F898
:103370004428A269C5F84828E269C5F84C28226AA1
:10338000C5F8502800F09284A36041F20313E1686D
:10339000D9F87C2331400B431249A1FB021241F2C0
:1033A0008831E360520A01FB02F2531E4AB1626B9C
:1033B000013B12F0450F02D0900440F12D825E1CBB
:1033C000F5D14FF0004301212A2285F80818104654
:1033D000D5F80C180B43C5F80C381BB0BDE8F08FBE
:1033E000C0E0FEFFD34D6210C5002000000010C1F8
:1033F000049A9A4200F20482D5F8D84723689F07BE
:1034000000F08581D5F8100803289AD1D5F8342822
:1034100004F11801D5F838380968090DC5F81818ED
:10342000910F8DF82810C2F383618DF82910C2F333
:1034300001618DF82A10C2F307418DF82B10C2F3F9
:103440000721D2B28DF82C108DF82D201A0DADF871
:103450002E20C3F303428DF83020C3F3C0328DF821
:103460003120C3F380328DF83220C3F340328DF81F
:103470003320C3F300328DF8342000228DF835203C
:10348000002840F0658140F6FC71D5F83C2801EA3F
:103490008303C2F3C26143EA92730E93C2F34253B1
:1034A0008DF83C10C2F302618DF83D10C2F38241E9
:1034B0008DF83E30C2F3C2338DF83F108DF84030A6
:1034C0000E9B9DF84010013301F00701023103FA11
:1034D00001F19DF8303003F00F000123C5F82018EA
:1034E0008340C5F824385B0A01FB03F34FF40071F5
:1034F000C5F82838C5F82C18C2F38031D5F8403803
:10350000D5F81C0801278DF84110C2F3C61102F04E
:103510007F0200048DF84210D90F8DF843208DF8FA
:103520004410C3F34171B84E8DF84510C3F3826166
:103530008DF84610C3F383518DF84710C3F3405103
:103540008DF8481000218DF84910C3F300418DF823
:103550004A10C3F3C0318DF84B10C3F380318DF89E
:103560004C10C3F340318DF84D10C3F300318DF88A
:103570004E10C3F381218DF84F10C3F30121C3F323
:1035800046038DF8501007218DF8513041F2071392
:103590008DF85270A0602046E2683240134341F239
:1035A0008832E36058F072FE034600287FF40BAFC8
:1035B000D5F8D8074FF4007341F2101841F2883261
:1035C00083601021C368334043EA0803C36058F0A6
:1035D0005DFE002840F0E180D5F8D807D5F83C4AD8
:1035E00043699F0100F19080402741F28832102109
:1035F0008760C368334043EA0803C36058F046FE5F
:10360000034600284DD1D5F81C3841F28832D5F850
:10361000D80737211B048360C3681E4041F237136B
:103620003343C36058F032FE0346002839D1D5F841
:10363000D8074FF0FF324262876201331F2BFCD95B
:10364000C36A00220D2123F0FF0343F06303C3622A
:1036500082606D4AC3681A4041F20D13134341F270
:103660008832C36058F012FE0346D0B9D5F8D807A7
:103670000AAB05E0D5F83C2A121B013200F0458167
:10368000426B12F4957F426B40F042811604F1D5F3
:1036900003F12001D0F8802043F8042B8B42F9D1AC
:1036A000E8E7D5F80C28D5F8D807C5F80C2857490D
:1036B00001228163D5F80C180B434FF40071C5F853
:1036C0000C3841F2101385F8082881604E4AC16811
:1036D0000A401021134341F28832C36058F0D6FDEE
:1036E00040B1D5F8D827012348499163C5F80C08A3
:1036F00085F808382A2210461BB0BDE8F08F042355
:103700004FF08050A36370E44FF40063CFE74FF0B5
:10371000806358E658460EF0DBFF20B195F8F32A97
:103720000E21FFF78DF850460EF0D2FF20B195F82C
:10373000F52A0E21FFF784F848460EF0C9FF00284D
:103740003FF4E9AC95F8F72A0E21FFF779F8E2E4A7
:10375000012815D11B04D5F83C284FF4007103F45F
:103760007C13C5F8241843EA1243C5F82C180E93AD
:103770000E9B01339B02C5F82038C5F82838BBE6FC
:10378000224A4FF080530121A263D5F80C281A4336
:10379000C5F80C2885F8081815E6D5F8D8371B4A5F
:1037A0009A632A22D5F80C381843C5F80C0885F816
:1037B000087823E4164B836361E5164BD3F8DC20CD
:1037C00022F40072C3F8DC20D3F8842042F40072A3
:1037D000C3F88420D3F8842022F40072C3F8842034
:1037E000D3F8DC2042F40072C3F8DC20D3F8DC30DC
:1037F00003F400730293029B5CE4402383632BE594
:103800004FF08070FFF7F1BBC0E0FEFFFF0FE01F3D
:10381000C500200000440258636B590700F136824E
:10382000636B13F0010340F02D822369DBB2032B9D
:1038300040F02582B54BA363636913F4604F0AD04F
:103840005A0400F1398213F4004F14BF4FF480532F
:103850004FF48033B7E51B0CAD4941F2093218042F
:10386000C5F81C38A0602046E36819400A43E260AE
:1038700058F0A6FD034600287FF4A5ADD5F8D8473B
:10388000626904F11801C5F83428A369C5F838380D
:10389000E069C5F83C08266AD5F81008C5F8406804
:1038A000BAE501238363FFF7E9BB1968890640F194
:1038B000DE81186807EE102A96491B6BC0F3C1021F
:1038C000B8EEC75ADFED945AC3F30803D140B7EE00
:1038D000007A06EE903A06EE101AF8EEE66AB8EEB6
:1038E000C66A76EE876A86EE057AE7EEA56A27EE67
:1038F000267A52E407EE102A9FED885AF8EEC76A3E
:1039000038E404238363FFF7B9BB4FF00043CEE6EE
:10391000110700F1C581426B920700F1C581426B2E
:10392000970609D5BEE1D0F88010D5F83C2A43F8B7
:10393000041B121B0132E8D0426BD604F3D4784B3F
:1039400083630A9BC3F381128DF81420C3F34012E2
:103950008DF815201A0A22F0FF0242EA1362DDE90F
:103960000B1392B209BAADF81620DAB206918DF8AF
:103970001C20C3F307229DF83B108DF81D20C3F3D4
:1039800003521B0C8DF81E200D9A23F0FF03D4B2B6
:103990002343ADF82030C2F385238DF82230C2F3E3
:1039A00001238DF82330C2F3031302F00F028DF8C8
:1039B00024304FF400738DF825208DF82610102147
:1039C0008360534AC3681A4041F21013134341F213
:1039D0008832C36058F05AFC00287FF482AED5F8D4
:1039E00010189DF8243001299DF82520DBB2D2B2B1
:1039F00036D00323D5F8E447C5F83008994285F856
:103A000008383BD1D5F80C28D5F8D83742F0805289
:103A1000C5F80C28D5F80C28002A42D041494FF4AB
:103A200000723B48996341F210119A60DA681040C5
:103A300041F2883201431846D960102158F026FC23
:103A4000002800F0E480D5F8D83701223549996381
:103A5000D5F80C381843C5F80C0885F8082849E64D
:103A60001343D5F8E4474FF0030214BF4FF400733B
:103A70004FF4807385F80828C5F83038B4F5004F46
:103A8000C0D0B4F5804F00F0C680002C00F08880D4
:103A9000D5F80C28D5F8D83742F00062C5F80C28C4
:103AA000B8E7D5F8EC07D5F8DC270328D5F8E067A8
:103AB000D5F8E81709D8D5F83078B7F5007F04D0E5
:103AC000B7F5807F0CBF0220042032430A43164919
:103AD00022435C6821400A434FF40071024341F2E3
:103AE00010105A6099600A4AD9680A4010211043A0
:103AF00041F28832D860184658F0C8FB0028A2D19D
:103B0000012385F80838D5F83C4A14E0C5002000A8
:103B1000C0E0FEFF0090D003000000390024F44A0A
:103B20003A0F0018FF0FE01F002CC0FFD5F83C3AF9
:103B30001B1B01332AD05EF0B9FB0428F6D100220A
:103B40000121D5F81038C5F80C28C5F8042885F8E7
:103B50000818A3B18B427FF4CDAD0223584C85F8F1
:103B6000803304F23C530FCB84E80F0004F24C5333
:103B700010340FCB84E80F000022FFF73FBAD5F8CE
:103B80001438002BEAD0012BE8D0B3E54FF0004108
:103B900001232A22C5F80C1885F80838FFF72EBA39
:103BA000D5F8D837CDE90A445A6992015CD40AA8FD
:103BB0005EF09EFB18BB0B9BDB036CD5D5F81C3865
:103BC0003721D5F8D8071B043E4E836041F23713E6
:103BD000C2683240134341F28832C36058F056FB4A
:103BE00068B9D5F8D8078460C26841F20613062187
:103BF0003240134341F28832C36058F047FBD5F896
:103C0000D837D5F80C281043C5F80C0802E7012373
:103C100085F808386EE50022D5F8D837CDE90A22B4
:103C20005A69900120D40AA85EF062FB0028E6D110
:103C30000B9B59032FD5D5F81C383721D5F8D80759
:103C40001B04204E836041F23713C2683240134395
:103C500041F28832C36058F019FB0028CFD1D5F863
:103C6000D80702238360BFE74FF40060C9E707EE7F
:103C7000102A9FED155AF8EEC76AFFF77BBA0123A9
:103C8000FFF7A1BB0122A263FFF79DBB04221346ED
:103C9000A263FFF798BBD5F8D8374FF08060B0E744
:103CA000082304E5202302E5022300E5D5F83428A3
:103CB000D5F83838FFF7B0BB4FF40053FFF783BB9C
:103CC000B01E0024C0E0FEFF0024744C10B51A4C56
:103CD00094F8FC3A7BB1194B93F8800350B194F8F7
:103CE000A8330133DBB2072B84F8A8330CD90023A7
:103CF00084F8B43310BD012384F8FC3AFFF70AF9C5
:103D00000E4B83F88003E9E7D4F8E43343B1196834
:103D100094F8E1239B8809690B404AB1002BE6D156
:103D2000D4F888230123C4F8A42384F8B43310BD45
:103D3000002BDCD0F4E700BFB81B002400000024F7
:103D4000F8B5974C94F8E053002D00F0FF8094F8FC
:103D5000B4230226531E082B3CD8DFE803F032348C
:103D6000A43B674A163B0500FDF732F9002840F0F6
:103D7000FE80D4F8A433D4F88823FA33934226D2B1
:103D8000FFF7A4FF94F8B423E4E7FDF721F9002836
:103D9000EFD0D4F8B0230023012A84F8A83340F2EE
:103DA000EA80D4F8AC13013A0131C4E9EB1294F87B
:103DB00082240AB1C4F854380823054684F8B43381
:103DC00015E084F8B463FDF703F900284CD194F8AA
:103DD000B423531EDBB2022B00F2B080D4F8883338
:103DE000D4F8A4239B1AC82B00F2B48000252846DF
:103DF000F8BDD4F81C33002BF8D10722D4F888334F
:103E0000D4F89C5384F8B423C4F8A433002DEED026
:103E1000D4F8A0330120D4E9E421A847D7E7D4F8A7
:103E2000A433D4F8882364339342DFD2D4F81873D0
:103E3000002FF4D1FDF7CCF80028A3D00423D4F848
:103E40009C5384F8A87384F8B433002D00F08D805F
:103E5000D4F8A0333846D4F89023D4F89413A84764
:103E600094F8B423531EB5E7FCF764FA0028AED1EA
:103E700094F88033002BA3F10203B3FA83F314BF49
:103E8000022201225B0984F8A92384F8AA33FCF7F3
:103E900051FA00287FF474AFD4F870230323C4F8D8
:103EA000B82384F8B433FCF745FA00288FD194F88E
:103EB00054530422B4F85613D4F85833C4F8B0035A
:103EC000A4F8BC13180ED4F85813D4F85833090CBE
:103ED00084F8BF031B0A84F8BE5384F8C01384F827
:103EE000C133D4F8581394F85C0394F85D3384F824
:103EF000C213D34094F85D1384F8C30384F8C83325
:103F000001F00F01D4F86033B4F86603C4F8C43389
:103F1000B4F8663384F8C913C3F30B13B4F866130B
:103F200084F8B42343EA102301F00F0103F00F03D8
:103F300084F8CC1303F5FA63A4F8CA33082A18BF2F
:103F4000042A0CBF012500252846F8BD284684F820
:103F5000B453F8BDFFF7BAFE94F8B453082D18BF58
:103F6000042D0CBF0125002541E705463FE704234A
:103F700084F8B4333BE7FAD194F88224C4F8B03320
:103F80000AB1C4F85438FDF723F80028EFD109220C
:103F9000D4F88833054684F8B423C4F8A43326E75C
:103FA000B81B00242DE9F0435E4C0D4683B0064655
:103FB00094F8B41390461F46042914D0082956D10A
:103FC000D4F8AC3383420ED0002394F88224C4F892
:103FD000B0330AB1C4F85438FCF7FAFF00284AD0CD
:103FE000042384F8B433D4F85438C3F34F205A0A66
:103FF0000F28C4E9E45604D8D4F8B093B9F1000FFF
:1040000044D101200622012384F8B423EA0684F86F
:104010009833C4F81C332B46C4E9E78766D14102C4
:10402000BFF34F8F39B105EB010C3F49C1F868323E
:1040300020336345FAD1BFF34F8FBFF36F8F002D4D
:1040400062D094F80838012B50D10023D4F82828E6
:10405000C4F80C383318934242D8024631462846F9
:104060005EF0C2F8002841D103B0BDE8F083012022
:1040700003B0BDE8F0830922D4F88833012084F826
:10408000B423C4F8A43303B0BDE8F08394F88214D9
:104090000029B6D0B3F5005F3DD024484FF400723C
:1040A00029460193184466F0DDFB019B03F500737C
:1040B000C3F34F205A0AC4F8543810282BD0B9F152
:1040C000010F28D0D4F8AC2309F1FF3304210220DA
:1040D0000132C4F8B03384F8B413C4F8AC23C7E792
:1040E000D4F80C3843F00073C4F80C38FFF7EEFD39
:1040F000D4F89C53A5B10120D4F8A0330022D4F801
:104100009413A8470320B3E7D4F80C3843F00063B6
:10411000C4F80C38EAE793B2044D013BF61A71E794
:104120000320A5E7B81B002400ED00E010330024B5
:104130002DE9F8433A4C0D460646904694F8B413E0
:104140009946042910D0082902D00020BDE8F88340
:10415000002394F88224C4F8B033BABBFCF738FFCC
:10416000D0B3042384F8B43315F01F0243D10123E4
:10417000C4F86858C4F81833C4F870384FF40073A2
:10418000C4F86C38002D44D094F80838012BDFB205
:1041900031D1731CC4F80C28D4F82828934224D8B1
:1041A0003A46314628465DF0BDFF20BB0522D4F8D3
:1041B00088333846C4F89053C4F8946384F8B42321
:1041C000C4F8A433C4E9E789BDE8F883C4F85438D7
:1041D000FCF7FEFE0028C4D10922D4F8883384F805
:1041E000B423C4F8A433BDE8F883D4F80C3843F002
:1041F0000073C4F80C38FFF769FDD4F89C53002D08
:10420000A3D00022D4F8A033D4F894131046A847C2
:104210009BE7D4F80C3843F00063C4F80C38EAE7A5
:10422000B81B002410B503791F4C002B14BF0122CA
:10423000002284F8E0232BD094F8E93AD4F8E42360
:10424000003B18BF012384F8823492B1116893882F
:10425000096994F8E1230B404AB953B994F8A8339B
:104260000022013384F8B42384F8A83310BD002B56
:10427000F4D194F8FC3A73B10C4B93F88003002806
:10428000ECD1D4F88823012384F8A803C4F8A4232C
:1042900084F8B43310BD012384F8FC3AFEF73AFEEB
:1042A000024B83F88003EAE7B81B002400000024D7
:1042B000F8B590F8EE311C09013C062C0FD81B4EC6
:1042C000054603F00F0306EB4402B2F8680240FA19
:1042D00003F2D20703D595F8F971012F01D001201F
:1042E000F8BD07FA03F33444013B184064F044FC82
:1042F00094F8782213180E4A02EBC30152F83320C7
:104300008B8810691840EBD0002395F8EF21084600
:10431000022185F8F931FEF793FAD5F85021384695
:10432000136843F008031360F8BD00BF50AC0A08DF
:10433000B826002410B5214C94F8810E0EF0C8F96F
:1043400028B11F210022C1802021FEF779FAD4F87C
:1043500058383BB194F864181A68C9079B8848BF5D
:104360001B04936194F9EB2A00210320FEF734F932
:1043700050B1D4F8E4335BB1196894F8E1239B8819
:1043800009690B4012B91BB9012010BD002BFBD1EC
:1043900094F8FC3A4BB10A4B93F880030028F3D110
:1043A000D4F88833C4F88C3310BD012384F8FC3A68
:1043B000FEF7B0FD024B83F88003EFE7B81B002443
:1043C0000000002470B503798AB02E4C002B14BF76
:1043D0000122002284F8E02303D184F8B4330AB028
:1043E00070BD04F57A76054690F9001030460DF060
:1043F000DFFDAD78002D37D10122234B234884F80F
:10440000F423C4F87C34C4F8F0530DF0C3FD034624
:104410004FF47A70A4F8EC330EF0F4FFD4F8F033D4
:1044200013B11A689B889361194DEC460FCDACE827
:104430000F000FCDACE80F0095E803008CE80300F7
:10444000694630460DF0C8FBD4F8E823136A002B08
:10445000FCD1D4F88813012284F8A833C4F8A4133B
:1044600084F8B4230AB070BD28460EF031F9054631
:104470000028C1D01E2300220D21C380FEF7E0F9E1
:10448000BAE700BFB81B0024481F0024801A0600AA
:10449000D0AE0A08014B43F8201070475040005836
:1044A00019481A4B01681A4A41F4807130B401600E
:1044B00082B0D3F8F410FF24CA2041F48031C3F84D
:1044C000F410D3F8F41001F4803101915321019DCF
:1044D000546250625162D3F8D030DB010CD40D4BE2
:1044E00000210D4A43F8041B9342FBD1084B0B4AB1
:1044F0001A6502B030BC7047126D084B9A42EED17B
:1045000002B030BC704700BF004802580044025857
:1045100000400058544000586C40005831666542D5
:10452000F0B50446D0F85C01454B83B0A16804F5B2
:10453000967204F1E0070E68C1B220F0FF0001920C
:104540001039A3FB0131090960F024F8D4F81C11DB
:104550000023019A012984F8203118D0042916D0AB
:10456000102958D0402912D0B1F5807F56D0B1F52E
:10457000806F53D0B1F5805F58D0B1F5803F4FF0D8
:104580003C030CBF6FF0080C6FF4006C01E06FF09F
:10459000080C06F118053046E95801EA0C01E9500B
:1045A000D4F81C115FF096FCD4F81C31012B16D006
:1045B000042B14D0102B0FD0402B10D0B3F5807FDC
:1045C00030D0B3F5806F2DD0B3F5805F32D0B3F526
:1045D000803F06F1540502D04FF4006100E008214D
:1045E0002B683A46D4F85C010B4340212B60C4F899
:1045F000E810C1B2124B20F0FF001039A3FB0131CB
:1046000009095FF077FFD4F85C21136843F01003C9
:10461000136003B0F0BD6FF4006CBAE76FF0080CE4
:104620000423B6E706F11C050821D9E76FF4006CF6
:104630000423AEE706F11C054FF40061D0E700BF8C
:10464000ABAAAAAA2DE9F04FDFF848B185B09BF8D4
:10465000004024B90124204605B0BDE8F08F474B47
:10466000D3F888530EF044FC454A92F8B83B002B2F
:1046700000F0BC81434B02F17C070BF5A7640026D8
:10468000A3FB0513404D5B09A5FB0315ED0805EBE6
:104690008505A3EB4505D2F87C3BC31A0193EBB229
:1046A00007EB8505029302F557730093019A002AE0
:1046B00004DBD4F82431934200F37C814FF4B473CB
:1046C00003FB06B393F85836002B00F0C080D4F8F3
:1046D0005C11A3682D481A68CBB221F0FF01103B92
:1046E000A0FB03032A481B09C35C19444B68A1893A
:1046F0001FFA83FED368CEF1160E23EA0103BEF142
:10470000070FD36040F2A3801D4A0121D2F8643321
:104710008A460133C2F864330022D4F864319046EB
:104720009C4603935CF8049B48461DE0DCF800902F
:10473000B8F1140FA9EB000348462DDC13F108096A
:1047400048BF03F117094FEA291308EB291803F1B1
:10475000FF39013102FA03F30CF1040C0AFA09F2F1
:104760008E4542EA030217D38E45DFD8C8F1150300
:10477000DCF800004FF01508E9E700BFB81B002483
:10478000FC1000201F85EB51CDCCCCCCABAAAAAA43
:1047900068310B0804000020B8F1150F40F00081CB
:1047A0009649C2F38423C2F3441001EB830301EB67
:1047B0008000D3F8A832D0F8A8021B0243EA001305
:1047C00002F01F00C2F3C43201EB800001EB820251
:1047D000D0F8A812D2F8A8220B4343EA023383EAA6
:1047E000132282EA121202F00F020F2A40F0D88040
:1047F000C3F30F134FF6FF72934200F0D180B3F56D
:10480000606F00F0DC80009A938197F8582002983E
:1048100082420CD0A9683A68521A3A607A68296BC9
:10482000521A7A600022AA602A6387F858003A6810
:1048300001323A60AA680132AA604FF6FF729342D1
:1048400005D17B6801337B602B6B01332B63009BAD
:10485000204601365C3714335C3504F5B47400939C
:10486000FFF75EFE664B93F8B83BB3423FF71EAFCF
:1048700063480121002280F86014C0F87C2B002BD3
:104880003FF4E8AE9BF81026DBF8540612F0020F56
:10489000DBF8402511680A6A0CBF024342EA800235
:1048A000012B0A623FF4D6AE9BF87827DBF8BC07F1
:1048B00012F0020FDBF8A82611680A6A0CBF024347
:1048C00042EA8002022B0A623FF4C4AE9BF8E02861
:1048D000DBF8240912F0020FDBF8102811680A6ACD
:1048E0000CBF024342EA8002032B0A623FF4B2AEDD
:1048F0009BF8482ADBF88C0A12F0020FDBF87829C3
:1049000011680A6A0CBF024342EA8002042B0A6261
:104910003FF4A0AE9BF8B02BDBF8F40B12F0020FC3
:10492000DBF8E02A11680A6A0CBF024342EA8002FF
:10493000052B0A623FF48EAE9BF8182DDBF85C0D58
:1049400012F0020FDBF8482C11680A6A0CBF024310
:1049500042EA8002062B0A623FF47CAE9BF8802E6E
:10496000DBF8C40E12F0020FDBF8B02D11680A6AF2
:104970000CBF024342EA8002082B0A627FF46AAE4F
:104980009BF8E83FDBF8182F13F0020F1D4B12685D
:10499000D96A136A14BF43EA81030B43136259E6D1
:1049A000174AD2F860330133C2F86033B6B14FF61C
:1049B000FF732AE70024204605B0BDE8F08F1249B6
:1049C0004A7802EB420201EBC2023244527C0D2AC9
:1049D0007FF419AF802200998A7716E7039958224D
:1049E0000A4865F03FFF4FF6FF730EE704490122C6
:1049F000C1F87C3B81F860242DE600BF50AC0A086A
:104A0000FC10002004100020B81B00240415002016
:104A1000474B93F8EC2A013A52B2511C00F08680C1
:104A20004449500101EB421200B5C3F8E42A821D4B
:104A300011F802E001EB020C93F8882E964561D044
:104A40009CF802E096455BD000F10A0211F802E002
:104A500001EB020C93F8892E96454CD09CF802E0AD
:104A6000964546D000F10E0211F802E001EB020C6F
:104A700093F88A2E964537D09CF802E0964531D0BF
:104A800093F8EA2A62B300F1120211F802E001EB96
:104A9000020C93F88B2E964539D09CF802E096458F
:104AA00008BF0CF1020C32D000F1160211F802E03E
:104AB00001EB020C93F88C2E964532D09CF802E064
:104AC000964508BF0CF1020C2BD01A3093F88D2EAE
:104AD00011F800C0084494451FD0817891421BD042
:104AE0005DF804FB0CF1020CBCF80020A3F8F02ADE
:104AF000C6E70CF1020CBCF80020A3F8FA2AB1E7D3
:104B00000CF1020CBCF80020A3F8F82A9CE7BCF8D2
:104B10000020A3F8F22AC7E702300288A3F8F62A99
:104B2000DEE7BCF80020A3F8F42ACEE7704700BF08
:104B3000B81B002478AF0A08012070475DF008B95F
:104B40005DF006B92DE9F047344C94F8F80A0DF001
:104B5000BFFD054694F8FA0A0DF0BAFD064694F832
:104B6000F00A0DF0B5FD94F8EA8A074694F8F4AA25
:104B700094F8F20A94F8F64A0DB11823EB800EB1BE
:104B80001923F3800FB11A23FB80B8F1000F15D160
:104B900038460121FDF700FDFEF796F92846012170
:104BA000FDF7FAFC3046FDF7F7FC2846FEF78CF9D6
:104BB00030460121BDE8F047FEF786B90DF088FDCB
:104BC000814608B11B23C38050460DF081FD80460D
:104BD00008B11C23C38020460DF07AFD044608B1BD
:104BE0001D23C38038460121FDF7D6FCFEF76CF982
:104BF0004846FDF7D1FC4046FDF7CEFC2046FDF7C8
:104C0000CBFC01214846FEF75FF940460121FEF743
:104C10005BF901212046FEF757F9BFE7B81B0024D6
:104C2000D0F850112422F8B5C0F8D02104460A6803
:104C30000023806804F5A87522F001020A600B6069
:104C40004B608B6094F805C0C4F8D83184F8CC313F
:104C5000C4F8D031C4F86831C4F8D431C4F8703124
:104C6000C4F864314FEA8C23B44A03F48053C4F887
:104C700054019142C4F858314FEA0C3303F4005305
:104C8000C4F85C314FEA0C2303F48063C4F860314C
:104C900000F0AE81237913F0010002D00422C4F8A1
:104CA000642113F0020305D0D4F8642142F0080215
:104CB000C4F864211CF0010F0DD048B1D4F878215C
:104CC00042F00202C4F878214FF48032C4F8802107
:104CD000002B40F081819A4B03F12C0053F8042BF8
:104CE000944200F03F819842F8D11CF0080F40F048
:104CF0004F81D4F8D031002B00F09C81242328462A
:104D0000C4F8D0310B6823F001030B6056F090FF1C
:104D1000012815D0D4F87831002B40F09181D4F8D7
:104D2000503128465A6822F490425A609A6822F01C
:104D30002A029A601A6842F001021A6060F07EFB53
:104D40002379DA076DD5D4F82C21002A00F05F8191
:104D50000023D4F8341104F13C06E2634FF480627E
:104D6000C4F8B8103046E264C4E91133C4E914331E
:104D7000C4E91833C4E91A334FF48033E3654FF4C0
:104D80008073A36561F0DAF9304652F05BFCD4F829
:104D9000D431C4F8C861202B65673DD1E3686269EE
:104DA00099B2CAB3B1FA81F04009A9B394F8CCC161
:104DB000BCF1010F30D02227C4F8D80194F870C09C
:104DC000C4F8D4715F4FA4F8AC110121A7675E4FFE
:104DD0008C45C4F8A821E7675C4FC4F88C0084F8C0
:104DE000CC11C4F888700ED094F8717084F87010EB
:104DF000012FD4F8501100F02B814FF4006384F898
:104E00007000C4F89030102100222023C4F8D8117B
:104E100084F8CC21C4F8D031E26B23795268C4F80D
:104E200044219B0740F18880D4F83021002A00F00B
:104E3000E3800023D4F8381104F1B406C4F8B42098
:104E4000C4F8C0304022C4F8D0303046C4E9323310
:104E5000C4E93633C4E938334FF48033C4F8D4306E
:104E60004FF48063C4E92E12C4F8C43061F066F9CF
:104E7000304652F0E7FB002840F0B980D4F8B42067
:104E8000334B34483449824218BF9A42C4F8C46153
:104E9000C4F8EC5000F160000CBF012300232F4C3C
:104EA0008A4208BF43F001033031A24208BF43F0F9
:104EB000010360348A4208BF43F00103303182426B
:104EC00008BF43F0010300F568708A4208BF43F051
:104ED000010301F55C71A24208BF43F0010304F530
:104EE00068748A4208BF43F001033031824208BF30
:104EF00043F0010360308A4208BF43F001033031C0
:104F0000A24208BF43F001038A4208BF43F00103F5
:104F10003031824208BF43F001038A4208BF43F0A8
:104F200001033BB90E4BD31AB3FA83F35B09002B91
:104F300000F0A78000235360F8BD00BF000C0058AC
:104F4000BC1C0020FD8A0908318B0908358B090833
:104F50001000024028000240400002405800024079
:104F6000B8040240002C3FF4C0AE94F8F831002B96
:104F70003FF4BBAED4F878311CF0080F43F00803BF
:104F8000C4F878314FF40043C4F888313FF4B1AE2F
:104F9000D4F8D031002B50D024232846C4F8D03187
:104FA0000B6823F001030B6056F042FE01283FF42A
:104FB000C7AED4F87831002B46D1D4F8503128460A
:104FC0005A6822F490425A609A6822F022029A604B
:104FD0009A6842F00802ACE6D4F8783143F0010355
:104FE000C4F878314FF40033C4F87C3173E6FEE73F
:104FF0000423C4F874314DE6D4F8DC311A6842F069
:1050000080021A601A6842F040021A60F8BDD4F8B3
:10501000DC21116841F480711160916841F0010157
:105020009160116841F020011160116841F0100198
:105030001160F6E684F8CC3160E684F8CC31ABE759
:10504000284657F0CBF86AE6284657F0C7F8B4E789
:105050009BB22431304652F015FD00287FF4D3AEC8
:10506000D4F8503184F8CC011A6842F480721A6086
:105070009A6842F001029A609A6842F040029A608F
:10508000CAE65360F8BD00BFF8B50446EFF31185DA
:10509000502383F31288D0F830311B6803F00103EA
:1050A0001BB1EDB285F31188F8BDD0F8D021D0F84E
:1050B000D4110A4302F02102212AF2D0D0E90921B9
:1050C0008A424FD04BD800691A46431A9BB2A2625B
:1050D000002284F8E021D4F8D021202AE1D1A2696D
:1050E0005118DED0B3FA83F25209002BD9D094F8CC
:1050F000CC010128D5D02120A4F8A6314FF0010C15
:10510000C4F8D821C4F8D001D4F8C401C4F8A0115F
:10511000A4F8A43184F8CCC170B31D4E90F834E0EB
:10512000C6631C4EE645026506641B4EC6640CD081
:1051300090F83560D4F85071664580F834C015D0C9
:105140004FF4006380F834204365102100222023AF
:10515000C4F8D81184F8CC21C4F8D031A1E7531A8F
:105160009BB2B4E7012380F8E0319AE707F1280207
:1051700052F088FC0028E8D1D4F8503100224021B8
:10518000196284F8CC219A6842F080029A6088E71C
:10519000D58A0908F98A0908358B09082DE9F843E9
:1051A0004D4C04EB8004D4F8C04B002C44D0D4F810
:1051B000E8511F46494B0646A160204623609046B1
:1051C0006B68C4F8DC31AB6B63616B6BA361EB8F15
:1051D000E360AB8F2361424BC4F8E4310DF01AFC5D
:1051E0006B68A88DC4F85031002863D194F8EE01A3
:1051F0000DF06EFA022117F00802034694F8EC91C4
:1052000084F8F9111BD060B317F0510F4FF00B0267
:1052100006F1010614BF0A211A2117F0410FC671C9
:10522000827114BF4023202394F8EF211943FDF726
:1052300007FBD4F82C314BB32046BDE8F88318F0B7
:10524000020F0ED068B14FF00B0C3B0680F806C081
:1052500006F1010C80F807C02FD494F8EF21FDF778
:10526000EFFA48460DF034FA0028E2D018F0010FAA
:10527000DFD00C2201360221C671827194F8ED2133
:10528000FDF7DEFAD4F82C31002BD5D195F8321089
:1052900095F8300089095DF03DFC95F83030012229
:1052A000104903F01F005B098240204641F823208B
:1052B000BDE8F8835DF0AEFC98E7D4F850714FF08C
:1052C000010C20213B6823F008033B6084F8F9C1FE
:1052D000FDF7B6FAC5E700BFFC100020B8AF0A081A
:1052E000B142040800E100E0BFF34F8F0549064BCF
:1052F000CA6802F4E0621343CB60BFF34F8F00BF74
:10530000FDE700BF00ED00E00400FA051C481D4A5F
:10531000C1681D4B10B44FF6FF0485B021401B4CF3
:105320000A43C260D3F8D010D3F8DC20C4F8901E32
:1053300042F00052C3F8DC20D3F8DC2002F0005227
:105340000192019AD3F8DC2042F08042C3F8DC20BD
:10535000D3F8DC2002F080420292029AD3F8DC20DB
:1053600042F00042C3F8DC20D3F8DC3003F0004305
:105370000393039B05B05DF8044B0DF041BD00BFE6
:1053800000ED00E00005FA0500440258B81B0024B7
:1053900008B51D480023C0F88430BFF34F8F436920
:1053A00023F480334361BFF34F8FD0F8803043F64E
:1053B000E074C3F34E3CC3F3C90E4FEA4C1C0CEA35
:1053C0000401734641EA8372013BC0F874225A1CFF
:1053D000F8D1ACF1200C1CF1200FF0D1BFF34F8FAE
:1053E000BFF36F8FBFF34F8FBFF36F8F43690022FF
:1053F00023F400334361C0F85022BFF34F8FBFF353
:105400006F8F72B6FFF770FF00ED00E003689B0A34
:10541000A3F58013522B57D870B53E4C14F803C037
:10542000BCF10D0F4FD840798508002951D04FEAC3
:10543000900E4C2438480CEB8C0304FB0C040CEB52
:105440004303D4F8946E02242B4404FA0EFEF4684D
:1054500000EB83054EEA0404A966AA67F460EFF343
:105460001184502383F312882C2303FB0CF3C118FF
:105470004A6E52B3131DC1F88820284A2C21284DAA
:1054800001FB0CF105EB010E14310A4452F8041B28
:1054900019B1196052F8043C04339645F6D1002244
:1054A000E4B21A6084F311882C2303FB0C03D3F8B5
:1054B00088302BB34C2303FB0C00D0F8942ED36818
:1054C00043F00103D36070BD7047144A2433134482
:1054D000D4E711484C23022403FB0C0304FA05FE15
:1054E000D3F8946E0CEB8C03F4680CEB430324EAC2
:1054F0000E042B44F46000EB8304A166A267AEE7C0
:105500004C2303FB0C00D0F8942ED36823F0010346
:10551000D36070BD50AC0A08B81B00241C1C0024CA
:10552000401C002403689B0AA3F58013522B00D96A
:105530007047144AD35C0D2BFAD84FF04C0C10B4C2
:10554000114C79B9417902220CFB03405DF8044B00
:1055500021FA02F3D0F8941E9A40CB6823EA0203A2
:10556000CB607047417902220CFB03405DF8044B8D
:1055700021FA02F3D0F8941E02FA03F3CA68134327
:10558000CB60704750AC0A08B81B002403689B0A24
:10559000A3F58013522B10D8084AD25C0D2A0CD8E0
:1055A0004079022306494FF04C0CD8400CFB021204
:1055B0008340D2F8942EDB431361704750AC0A0845
:1055C000B81B002401490248FBF79ABC1C1C0024AC
:1055D0000000014001490248FBF792BC1C1C00245A
:1055E0000000014002494FF08040FBF789BC00BF3A
:1055F000481C002401490248FBF782BC741C0024AB
:105600000004004001490248FBF77ABCA01C0024BA
:105610000008004001490248FBF772BCCC1C002482
:10562000000C00402DE9F843194E3569F3681D4020
:1056300010D04FF00047DFF85C80B5FA85F227FA0A
:1056400002F31F2A6FEA030305EA0305336103D05F
:10565000002DF2D1BDE8F883D8F86831A3B103F189
:10566000FF3900231FFA89F9C8F86831D8F8644176
:10567000002CEDD023682046494698476468002CEA
:10568000F8D1002DD9D1E5E7F16A1FFA81F9EDE7EC
:1056900000100040B81B002401490248FBF730BC51
:1056A000501D00240004014010B5064C064804F5C6
:1056B000CC71FBF725FC04F5F8710448BDE81040F7
:1056C000FBF71EBCB81B002400040140001C004076
:1056D00001490248FBF714BC7C1D0024001800405F
:1056E00001490248FBF70CBCD41D002400200040F7
:1056F00001490248FBF704BC001E002400400140A1
:1057000001490248FBF7FCBB2C1E00240044014069
:1057100001490248FBF7F4BB581E00240048014031
:105720002DE9F0414FF425728EB000217B4865F0E1
:105730000DF97B4B7B4E4FF08041D3F8F02006F6FD
:105740008415374642F00102DFF8E08106F668145E
:10575000C3F8F020D3F8F02002F001020092009A82
:10576000D3F8E82042F00102C3F8E820D3F8E8209B
:1057700002F001020192019AD3F8E82042F00202FD
:10578000C3F8E820D3F8E82002F002020292029A5D
:10579000D3F8E82042F00402C3F8E820D3F8E82068
:1057A00002F004020392039AD3F8E82042F00802C0
:1057B000C3F8E820D3F8E82002F008020492049A23
:1057C000D3F8E82042F01002C3F8E820D3F8E8202C
:1057D00002F010020592059AD3F8E82042F0200268
:1057E000C3F8E820D3F8E82002F020020692069AD7
:1057F000D3F8F02042F00202C3F8F020D3F8F020F2
:1058000002F002020792079AD3F8E82042F0400221
:10581000C3F8E820D3F8E82002F040020892089A82
:10582000D3F8E82042F08002C3F8E820D3F8E8205B
:1058300002F080020992099AD3F8E82042F48072BB
